:100000004FC19EC13EC19CC19BC19AC199C198C1BB
:1000100097C196C195C194C193C192C191C190C13C
:100020008FC18EC18DC18CC18BC18AC189C188C16C
:100030000FC186C185C184C183C182C181C180C114
:100040007FC17EC10FC113C17BC116C1FCC005C1F8
:10005000CAC0CCC0D0C0D4C0D8C0DCC0E0C0E4C0EE
:10006000E8C0ECC06DC16CC16BC16AC169C168C137
:1000700067C139C165C141C163C158C161C14CC1CA
:1000800005C15EC15DC157C15BC123C14AC10DC17C
:100090003EC124C114C12CC135C152C151C10AC1D4
:1000A000FAC04EC14DC14CC14BC14AC149C148C142
:1000B00047C119C145C121C143C138C141C12CC18A
:1000C000E5C03EC13DC137C13BC103C12AC1EDC03E
:1000D0001EC104C1F4C00CC115C132C131C1EAC096
:1000E000DAC02EC1F1C085C184C183C182C181C182
:1000F00080C17FC17EC17DC17CC10DC213C21FC240
:1001000060C2A1C2E1C222C352C351C357C360C37C
:100110007DC3A5C3EDC3FDC30DC426C42CC483C4D5
:10012000036EDB363D9A9999993DABAAAA2A3E0007
:100130000000803F072C7AA5BA6CC590DA3B936526
:10014000FC8BBC53F810FD3C5692834DBD879D3A05
:10015000B63DCBC9BF5BBE73DA0FC93F05A84CCD16
:10016000B2D44EB93836A9020C50B9918688083CF1
:10017000A6AAAA2ABE000000803F10E0A0E6B0E0D8
:10018000E8E4F9E103C0C89531960D92A436B107B1
:10019000D1F720E0A4E6B0E001C01D92AB38B20771
:1001A000E1F7CF93DF9300D01F92CDB7DEB78FEF8B
:1001B0009FEF9A8389831B828B81082E000C990BF9
:1001C000092E000CAA0BBB0B48E050E022E730E000
:1001D000841B950B2817390708F4B2C08050904053
:1001E0008F939F9308951A821982ABC081E090E0AB
:1001F0009A838983A6C082E090E09A838983A1C014
:1002000083E090E09A8389839CC084E090E09A83A5
:10021000898397C085E090E09A83898392C086E0C5
:1002200090E09A8389838DC087E090E09A838983E8
:1002300088C088E090E09A83898383C089E090E059
:100240009A8389837EC08AE090E09A83898379C00B
:100250008BE090E09A83898374C08CE090E09A836D
:1002600089836FC08DE090E09A8389836AC08EE0B5
:1002700090E09A83898365C08FE090E09A838983B8
:1002800060C080E190E09A8389835BC081E190E067
:100290009A83898356C082E190E09A83898351C012
:1002A00083E190E09A8389834CC084E190E09A8353
:1002B000898347C085E190E09A83898342C086E1C3
:1002C00090E09A8389833DC087E190E09A83898397
:1002D00038C088E190E09A83898333C089E190E057
:1002E0009A8389832EC08AE190E09A83898329C00A
:1002F0008BE190E09A83898324C08CE190E09A831B
:1003000089831FC08DE190E09A8389831AC08EE1B2
:1003100090E09A83898315C08FE190E09A83898366
:1003200010C080E290E09A8389830BC081E290E064
:100330009A83898306C082E290E09A83898301C010
:10034000000089819A810F900F900F90DF91CF91DB
:100350000895CF93DF9300D0CDB7DEB79A8389831A
:10036000109265001092640085E090E09093610027
:1003700080936000109267001092660086E090E023
:10038000909363008093620010926900109268005D
:1003900010926B0010926A0000000F900F90DF9196
:1003A000CF910895CF93DF93CDB7DEB72D970FB6DA
:1003B000F894DEBF0FBECDBF1E821D828FE390E09A
:1003C000C8DFEFDE98878F838F819885092E000C18
:1003D000AA0BBB0B40E050E02CE130E0841B950BF6
:1003E0002817390708F438C38D589F4F8F939F9370
:1003F00008958F81805D898780916A0090916B005C
:10040000892B09F440C08091680090916900892B84
:10041000A1F41A8219820DC089819A8183599F4F54
:1004200020E3E82FF92F208389819A8101969A830E
:10043000898389819A8102977CF31C821B8214C074
:100440008B819C8101962B813C8123593F4FE22F68
:10045000F32F208183599F4FE82FF92F20838B8121
:100460009C8101969C838B838B819C811816190635
:100470003CF7898580936D0081E090E0909369005E
:1004800080936800EBC22091600030916100809100
:1004900062009091630028173907CCF080916200C8
:1004A0009091630099239CF0809162009091630089
:1004B000282F392F21503109309363002093620097
:1004C00081599F4F2985E82FF92F2083C7C280913A
:1004D000620090916300181619060CF0BFC280915B
:1004E000620090916300282F392F215031093093F9
:1004F00063002093620081599F4F2985E82FF92FCF
:100500002083809160009091610001979093610039
:1005100080936000A3C281E090E090936700809395
:1005200066009DC28BED9FE0A9E4B0E48093870054
:1005300090938800A0938900B0938A0090C2809124
:10054000770090917800A0917900B0917A00209185
:100550008700309188004091890050918A00682F6F
:10056000792F8A2F9B2FECD6B92FA82F972F862F64
:100570008093870090938800A0938900B0938A00AD
:100580008091830090918400A0918500B0918600B5
:100590008093770090937800A0937900B0937A00CD
:1005A00080917B0090917C00A0917D00B0917E00B5
:1005B0008093830090938400A0938500B09386007D
:1005C0004EC28091770090917800A0917900B0910F
:1005D0007A002091870030918800409189005091E5
:1005E0008A00682F792F8A2F9B2F94D8B92FA82F94
:1005F000972F862F8093870090938800A09389007F
:10060000B0938A008091830090918400A09185002E
:10061000B09186008093770090937800A093790042
:10062000B0937A0080917B0090917C00A0917D0036
:10063000B0917E008093830090938400A093850006
:10064000B09386000CC28091770090917800A091C1
:100650007900B0917A002091870030918800409114
:10066000890050918A00682F792F8A2F9B2FE1D51E
:10067000B92FA82F972F862F8093870090938800FB
:10068000A0938900B0938A008091830090918400A8
:10069000A0918500B09186008093770090937800B8
:1006A000A0937900B0937A0080917B0090917C00B8
:1006B000A0917D00B0917E00809383009093840090
:1006C000A0938500B0938600809177009091780088
:1006D000A0917900B0917A00209187003091880034
:1006E0004091890050918A00682F792F8A2F9B2F83
:1006F0009FD5B92FA82F972F862F8093870090938F
:100700008800A0938900B0938A0080918300909123
:100710008400A0918500B09186008093770090932B
:100720007800A0937900B0937A0080917B0090913B
:100730007C00A0917D00B0917E0080938300909317
:100740008400A0938500B093860089C180918300C6
:1007500090918400A0918500B091860080937B00E9
:1007600090937C00A0937D00B0937E0080917700F1
:1007700090917800A0917900B0917A0080938300E5
:1007800090938400A0938500B093860080918700A9
:1007900090918800A0918900B0918A0080937700A1
:1007A00090937800A0937900B0937A0058C181E0CB
:1007B00090E090936B0080936A0051C11092870083
:1007C000109288001092890010928A0049D147C186
:1007D0008091870090918800A0918900B0918A0053
:1007E000282F392F4A2F5B2F60E070E080E89FE3CD
:1007F000A7D5B92FA82F972F862F80938700909386
:100800008800A0938900B0938A0029C18091770065
:1008100090917800A0917900B0917A008A879B87A7
:10082000AC87BD878091870090918800A091890056
:10083000B0918A008093770090937800A09379001C
:10084000B0937A008A859B85AC85BD8580938700AF
:1008500090938800A0938900B0938A0000C1809192
:10086000870090918800A0918900B0918A008A87C2
:100870009B87AC87BD878091770090917800A0918D
:100880007900B0917A008093870090938800A093BC
:100890008900B0938A008091830090918400A09198
:1008A0008500B09186008093770090937800A093A4
:1008B0007900B0937A0080917B0090917C00A091A8
:1008C0007D00B0917E008093830090938400A0937C
:1008D0008500B09386008A859B85AC85BD85809315
:1008E0007B0090937C00A0937D00B0937E00B7C006
:1008F0008091870090918800A0918900B0918A0032
:1009000080937F0090938000A0938100B093820039
:10091000A6C080917F0090918000A0918100B0914D
:1009200082008093870090938800A0938900B09301
:100930008A0095C08091870090918800A0918900DD
:10094000B0918A00682F792F8A2F9B2F58D7B92F03
:10095000A82F972F862F8093870090938800A093CD
:100960008900B0938A007BC081E090E0909365009D
:100970008093640074C08091640090916500892B1D
:1009800039F58091870090918800A0918900B091FD
:100990008A0024E33AEF4EE85CE3682F792F8A2F30
:1009A0009B2FB8D6B92FA82F972F862F682F792F76
:1009B0008A2F9B2F1AD7B92FA82F972F862F809376
:1009C000870090938800A0938900B0938A0047C065
:1009D0008091870090918800A0918900B0918A0051
:1009E000682F792F8A2F9B2F8DD4B92FA82F972F5F
:1009F000862F21EE3EE24DE652E4682F792F8A2FB2
:100A00009B2F88D6B92FA82F972F862F80938700EA
:100A100090938800A0938900B0938A00109265009B
:100A2000109264001CC08091870090918800A09172
:100A30008900B0918A00682F792F8A2F9B2F7DD44F
:100A4000B92FA82F972F862F809387009093880027
:100A5000A0938900B0938A000000B3CC0000B1CC11
:100A6000CF93DF9300D000D0CDB7DEB780E2809384
:100A70006C0080E2809376001A8219820DC0898111
:100A80009A8181599F4F20E2E82FF92F2083898195
:100A90009A8101969A83898389819A8107977CF349
:100AA0001C821B820DC08B819C8183599F4F20E249
:100AB000E82FF92F20838B819C8101969C838B8367
:100AC0008B819C8102977CF300000F900F900F9018
:100AD0000F90DF91CF910895CF93DF93CDB7DEB71D
:100AE000BFDF109287001092880010928900109248
:100AF0008A0010927700109278001092790010927C
:100B00007A00109283001092840010928500109257
:100B1000860010927B0010927C0010927D00109253
:100B20007E0010927F00109280001092810010923F
:100B300082000000DF91CF910895CF92DF92EF9273
:100B4000FF92CF93DF93CDB7DEB762970FB6F894DD
:100B5000DEBF0FBECDBF19821A821B821C821E828D
:100B60001D8218861F8286E090E09A87898764C07C
:100B700089859A8581599F4FE82FF92F8081082E0A
:100B8000000C990BC0970A9708F044C020E030E0B1
:100B900040E251E469817A818B819C81BBD5B92F78
:100BA000A82F972F862FC82ED92EEA2EFB2E8985A7
:100BB0009A8581599F4FE82FF92F8081082E000CCC
:100BC000990BC097092E000CAA0BBB0B682F792F2D
:100BD0008A2F9B2F4CD4B92FA82F972F862F282FE1
:100BE000392F4A2F5B2F9F2D8E2D7D2D6C2D21D3DC
:100BF000B92FA82F972F862F89839A83AB83BC8325
:100C00008D819E81892B99F08F8198850197988796
:100C10008F830DC089859A8581599F4FE82FF92FC1
:100C200080818E3221F481E090E09E838D838985DE
:100C30009A8501979A87898789859A8599230CF0E7
:100C400097CF80916C008D3249F489819A81AB8174
:100C5000BC81B05889839A83AB83BC831C861B8676
:100C600081E090E09E878D8731C08D859E85835978
:100C70009F4FE82FF92F8081082E000C990BC09709
:100C80000A97F8F42B853C85822F932F880F991FA4
:100C9000880F991F820F931F880F991F9C878B873E
:100CA0008D859E8583599F4FE82FF92F8081082ECF
:100CB000000C990BC0972B853C85820F931F9C8756
:100CC0008B878D859E8501979E878D878D859E85D7
:100CD00099235CF6809176008D3239F48B859C8562
:100CE0009195819591099C878B872B853C858F8178
:100CF0009885820F931F9C878B878B859C85181600
:100D000019060CF5188A1F8616C020E030E040E274
:100D100051E469817A818B819C81FCD4B92FA82F01
:100D2000972F862F89839A83AB83BC838F8598897D
:100D30000196988B8F872F8538898B859C852817FE
:100D400039071CF32BC08B859C8599233CF58B853B
:100D50009C859195819591099C878B871A8A198A20
:100D600016C020E030E040E251E469817A818B8155
:100D70009C81E6D2B92FA82F972F862F89839A833B
:100D8000AB83BC8389899A8901969A8B898B29893F
:100D90003A898B859C85281739071CF389819A81AC
:100DA000AB81BC81682F792F8A2F9B2F62960FB65B
:100DB000F894DEBF0FBECDBFDF91CF91FF90EF90D3
:100DC000DF90CF9008951F93CF93DF93CDB7DEB719
:100DD00062970FB6F894DEBF0FBECDBF6F87788BDA
:100DE000898B9A8B1E861D861A8219821C821B8211
:100DF00037DE20E030E040E050E06F857889898977
:100E00009A8997D2882364F48DE280936C008F8551
:100E10009889A989BA89B0588F87988BA98BBA8B82
:100E200020EF33E244E759E46F85788989899A890C
:100E30006DD418169CF516C020E030E040E251E475
:100E40006F85788989899A897BD2B92FA82F972FA6
:100E5000862F8F87988BA98BBA8B8B819C8101966B
:100E60009C838B8311E020EF33E244E759E46F85E4
:100E7000788989899A894AD418160CF010E021E003
:100E80008B819C8182970CF020E0812F8223882324
:100E900099F685E090E09A8389838AC02AE037ED4D
:100EA00043E25CE36F85788989899A8942D28823F5
:100EB000E4F516C020E030E040E251E46F85788927
:100EC00089899A8927D4B92FA82F972F862F8F87A2
:100ED000988BA98BBA8B8B819C8101979C838B8388
:100EE00011E020E030E543EC57E46F85788989898B
:100EF0009A891FD288230CF010E021E08B819C811D
:100F00008F3D9F4F0CF420E0812F8223882391F6A0
:100F100085E090E09A8389832B813C8189819A8145
:100F2000820F931F9C838B8343C020E030E040E816
:100F30005FE36F85788989899A89E8D388231CF1D2
:100F400016C020E030E040E251E46F85788989895D
:100F50009A89E0D3B92FA82F972F862F8F87988B48
:100F6000A98BBA8B89819A8101969A83898320E023
:100F700030E543EC57E46F85788989899A89D9D11E
:100F80008823FCF215C020E034E244E759E46F8581
:100F9000788989899A89BED3B92FA82F972F862F50
:100FA0008F87988BA98BBA8B86E090E09A83898390
:100FB0006F85788989899A892CD2B92FA82F972F84
:100FC000862F8D839E83AF83B8871A86198644C087
:100FD00029853A8589819A812817390749F48985B5
:100FE0009A8581599F4F2EE2E82FF92F20832FC039
:100FF0008D819E81AF81B8852AE030E040E050E0ED
:10100000682F792F8A2F9B2F62D4B92FA82F972F63
:10101000862F805D282F89859A8581599F4FE82FDB
:10102000F92F20838D819E81AF81B8852AE030E041
:1010300040E050E0682F792F8A2F9B2F48D4B52F9E
:10104000A42F932F822F8D839E83AF83B8878985AA
:101050009A8501969A87898789859A8507970CF4DE
:10106000B7CF8B819C81992354F48DE280937600D5
:101070008B819C819195819591099C838B838B8138
:101080009C81181619063CF51C861B8620C08B8196
:101090009C812AE030E0622F732F06D4805D282FD8
:1010A0008B859C8583599F4FE82FF92F20838B8157
:1010B0009C812AE030E0622F732FF6D3862F972F82
:1010C0009C838B838B859C8501969C878B878B85E6
:1010D0009C850297E4F280E090E015D02EDD8D85AE
:1010E0009E8562960FB6F894DEBF0FBECDBFDF912E
:1010F000CF911F910895CF93DF93CDB7DEB7000056
:10110000DF91CF910895CF93DF9300D0CDB7DEB7B5
:101110009A83898300000F900F90DF91CF910895FB
:10112000CF93DF9300D000D000D0CDB7DEB79C8343
:101130008B837E836D831A821982CEDC60E070E03F
:1011400080E89FE340DE60E070E080E89FEB3BDEFC
:1011500060E670E281E799E436DE60E670E281E7FE
:1011600099EC31DE6FED79EE86EF92E42CDE66E6E7
:1011700076EE86EF92EC27DE6DEC7CEC8CEC9DE35A
:1011800022DE6AE077ED83E29CE31DDE6DEC7CEC11
:101190008CEC9DEB18DE6DEC7CEC8CE49DEB13DEAF
:1011A00066E07CE283E99EE40EDE6EEF7DE786E991
:1011B0009CEC09DE6AE470E28FE497E304DE61EC04
:1011C00078EB8FE893E5FFDD62EF76EA83E395E560
:1011D000FADD6EEA70E980EE96E5F5DD63EF7FE11A
:1011E0008FE497EBF0DD60E070E080E89FE3EBDDFB
:1011F00060E070E080E692E4E6DD60E070E086EFBB
:1012000092E4E1DD60E078EB8EE895E4DCDD68EF08
:1012100073E781E099E3D7DD6EDF89819A812696B5
:101220000FB6F894DEBF0FBECDBFDF91CF9108950A
:101230005058BB27AA270ED01DC2E6D130F0EBD103
:1012400020F031F49F3F11F41EF491C10EF4E095AB
:10125000E7FB87C1E92F30D280F3BA176207730723
:101260008407950718F099F4C6F548C20EF4E09586
:101270000B2EBA2FA02D062E622F202D072E732F96
:10128000302D082E842F402D092E952F502DFF270D
:10129000591B99F0593F50F4503E68F11A16F0402E
:1012A000A22F232F342F4427585FF3CF469537952D
:1012B0002795A795F0405395C9F77EF41F16BA0BF2
:1012C000620B730B840BBAF09150A1F0FF0FBB1FA0
:1012D000661F771F881FC2F70EC0BA0F621F731FE9
:1012E000841F48F4879577956795B795F7959E3F46
:1012F00008F0AECF9395880F08F09927EE0F9795D9
:10130000879508959F939F77EEE389379E0720F492
:10131000E0E2F1E066D109C0E5D09058A2EA2AEDFA
:101320003FE049EC5FE396DFA5D10F9007FC9058B2
:101330000895F3D008F481E0089575D1E395ABC129
:101340000CD098C168D140F05FD130F021F45F3FFC
:1013500019F007C15111D3C10AC1AED198F3992335
:10136000C9F35523B1F3951B550BBB27AA27621769
:101370007307840738F09F5F5F4F220F331F441FAE
:10138000AA1FA9F334D00E2E3AF0E0E831D09150E4
:101390005040E695001CCAF72AD0FE2F28D0660FD1
:1013A000771F881FBB1F261737074807AB07B0E812
:1013B00009F0BB0B802D6E2F7F2FFF2793585F4FB7
:1013C0002AF09E3F510568F0CCC099C15F3FECF315
:1013D000983EDCF3869577956795B795F7959F5F6F
:1013E000C9F7880F911D9695879597F90895E1E0C3
:1013F000660F771F881FBB1F621773078407BA0722
:1014000020F0621B730B840BBA0BEE1F88F7E0957C
:1014100008955AD188F09F5790F0B92F9927B75166
:10142000A0F0D1F0660F771F881F991F1AF0BA95A8
:10143000C9F712C0B13081F061D1B1E008955EC149
:10144000672F782F8827B85F39F0B93FCCF386959E
:1014500077956795B395D9F73EF4909580957095FB
:1014600061957F4F8F4F9F4F0895E89409C097FB78
:101470003EF490958095709561957F4F8F4F9F4F6B
:101480009923A9F0F92F96E9BB279395F6958795AF
:1014900077956795B795F111F8CFFAF4BB0F11F472
:1014A00060FF1BC06F5F7F4F8F4F9F4F16C0882319
:1014B00011F096E911C0772321F09EE8872F762F4F
:1014C00005C0662371F096E8862F70E060E02AF090
:1014D0009A95660F771F881FDAF7880F969587957C
:1014E00097F908959F938F937F936F93E4E3F1E0CF
:1014F00041D0C0D02F913F914F915F919F938F9397
:101500007F936F9360E070E080E89FE391DE77D196
:101510002F913F914F915F9108C1990F0008550F8E
:10152000AA0BE0E8FEEF16161706E807F907C0F069
:1015300012161306E407F50798F0621B730B840B71
:10154000950B39F40A2661F0232B242B252B21F44B
:1015500008950A2609F4A140A6958FEF811D811DEB
:10156000089597F99F6780E870E060E008959FEF25
:1015700080EC0895DF93CF931F930F93FF92EF9228
:10158000DF92E62EF72E082F192F689407C0DA2E67
:10159000CE2FDF2FCAD0EC2FFD2FE894C895A02DB9
:1015A0003196C895202D3196C895302D3196C89525
:1015B000402D3196C895502D31964EF3CE2FDF2F0A
:1015C00049DEEC2FFD2F2E2D3F2D402F512FDA9489
:1015D000F9F6DF90EF90FF900F911F91CF91DF917F
:1015E00008959F938F937F936F93FF93EF93262F8D
:1015F000372F482F592F8ED0EF91FF91BBDF2F91BE
:101600003F914F915F9186C000240A9416161706E9
:1016100018060906089500240A94121613061406E3
:1016200005060895A4CF50D0E8F3E894E0E0BB2786
:101630009F57F0F02AED3FE049EC06C0EE0FBB0FDC
:10164000661F771F881F28F0B23A62077307840766
:1016500028F0B25A620B730B840BE3959A9572F7DC
:10166000803830F49A95BB0F661F771F881FD2F71A
:10167000904807C1092E0394000C11F4882352F0FE
:10168000BB0F40F4BF2B11F460FF04C06F5F7F4FAE
:101690008F4F9F4F0895EF93E0FF06C0A2EA2AED17
:1016A0003FE049EC5FEBD6DDE5DF0F90039401FCF2
:1016B0009058ECE5F1E095CF57FD9058440F551F39
:1016C00059F05F3F71F04795880F97FB991F61F0C4
:1016D0009F3F79F087950895121613061406551F3B
:1016E000F2CF4695F1DF08C0161617061806991FA7
:1016F000F1CF86957105610508940895E894BB279C
:1017000066277727862F972F97F9089506DF08F425
:101710008FEF08950AD0AECF77DF28F07CDF18F086
:10172000952309F01ECF23CFEACFC6DFA8F3992374
:10173000D9F35523C9F3950F50E0551FAA27EE277B
:10174000FF27BB2700240894679520F4E20FF31FBE
:10175000B41F0A1E220F331F441FAA1F6695A9F744
:10176000779530F4F30FB41F0A1E121E08F4639528
:10177000330F441FAA1F221F769599F7879520F4EF
:10178000B40F0A1E121E631F440FAA1F221F331F0D
:101790008695A9F7862F712D602D11249F575040F3
:1017A0008AF0E1F088234AF0EE0FFF1FBB1F661F8F
:1017B000771F881F91505040A9F79E3F510570F048
:1017C000D0CE9DCF5F3FECF3983EDCF386957795C6
:1017D0006795B795F795E7959F5FC1F7FE2B880F43
:1017E000911D9695879597F908959F931CDF0F900B
:1017F00007FCEE5F50CF11F40EF4B9CE40C064DFA9
:10180000D0F39923D9F3CEF39F57550B87FF45D0DB
:101810000024A0E640EA202D312D8058569597955A
:1018200028F4805C660F771F881F20F02617370783
:10183000480730F4621B730B840B202931294A2B93
:10184000A69517940794202531254A2758F7660F47
:10185000771F881F20F026173707480730F4620BE0
:10186000730B840B200D311D411DA09581F7622F54
:10187000732F842F9158880F9695879508959F3FD1
:1018800031F0915020F4879577956795B795880F3B
:10189000911D9695879597F9089591505040660F40
:1018A000771F881FD2F7089597FB072E16F4009430
:1018B00006D077FD08D032D007FC05D03EF49095D5
:1018C00081959F4F0895709561957F4F0895A1E28E
:1018D0001A2EAA1BBB1BEA2FFB2F0DC0AA1FBB1F72
:1018E000EE1FFF1FA217B307E407F50720F0A21BA6
:1018F000B30BE40BF50B661F771F881F991F1A9413
:1019000069F76095709580959095262F372F482F11
:10191000592F6A2F7B2F8E2F9F2F0895AA1BBB1B39
:1019200051E107C0AA1FBB1FA617B70710F0A61BDF
:10193000B70B881F991F5A95A9F780959095682F26
:08194000792F8A2F9B2F0895D7
:041948000500060090
:00000001FF
